:1000000058C000007DC000007BC0000079C0000027
:1000100077C0000075C0000073C0000071C0000010
:100020006FC000006DC000006BC0000069C0000020
:1000300067C0000065C0000063C0000061C0000030
:10004000EAC400005DC00000E0C3000010C400006E
:1000500057C0000055C0000053C0000051C0000050
:1000600006C700004DC000000000000800020100AB
:100070000003040700000000000000000102040863
:100080001020408001020408102001020408102002
:10009000040404040404040402020202020203032E
:1000A0000303030300000000250028002B00650463
:1000B000580611241FBECFEFD8E0DEBFCDBF14E03D
:1000C000A0E0B1E0EAECFCE102C005900D92A4349E
:1000D000B107D9F726E0A4E4B4E001C01D92AE3A1E
:1000E000B207E1F710E0C2EBD0E004C02297FE01B6
:1000F0000E94ED08CE3AD107C9F783D40C94630E61
:100100007FCF6115710581F0DB010D900020E9F7CB
:10011000AD0141505109461B570BDC01ED91FC919B
:100120000280F381E02D099480E090E00895EF9241
:10013000FF920F931F93CF93DF93CDB7DEB7C055D8
:10014000D1090FB6F894DEBF0FBECDBF6B960EADD2
:100150001FAD6B979E01235A3F4F6D964EAD5FAD1D
:100160006D9760E570E0CE0101960E94780BCE019C
:1001700001967C01F70180818823B9F08A3049F427
:10018000D801ED91FC910190F081E02D6DE0C80166
:100190000995D801ED91FC910190F081E02DD701F6
:1001A0006D917D01C8010995E5CFC05BDF4F0FB6AA
:1001B000F894DEBF0FBECDBFDF91CF911F910F919D
:1001C000FF90EF900895DC01ED91FC910190F0819A
:1001D000E02D0994CF93DF93EC018881882379F097
:1001E0008A3029F46DE070E086E495E0ECDF6991F7
:1001F000772767FD709586E495E0E5DFEECFDF9128
:10020000CF910895EF92FF920F931F93CF93DF93B7
:10021000C62F8A017901682F8CEE95E02BD56C2FC3
:100220008CEE95E0D4D4E801CE01801B910B8E15A5
:100230009F052CF469918CEE95E0C9D4F5CF8CEE36
:1002400095E0DF91CF911F910F91FF90EF902EC518
:10025000AF92BF92CF92DF92EF92FF920F931F93D4
:10026000CF93DF93CDB7DEB7C956D1090FB6F89457
:10027000DEBF0FBECDBF60E270E086E494E00E9476
:100280004A0BA9969FAF8EAFA997209146042836B6
:1002900009F4E9C024F4253609F4C6C0E8C02237C1
:1002A000E1F0273709F0E3C040E050E0BE016959B2
:1002B0007F4F0E94310AB62E40E050E0BE016959DE
:1002C0007F4FA9968EAD9FADA9970E94310AA62EA9
:1002D0008E010F5F1F4F780170C040E050E0BE01FB
:1002E00069597F4F0E94310A162F40E050E0BE014D
:1002F00069597F4FA9968EAD9FADA9970E94310A8B
:10030000062F40E050E0BE0169597F4FA9968EAD9F
:100310009FADA9970E94310A462F612F8CEE95E080
:10032000AA964FAFAA97A6D4602F8CEE95E04FD433
:100330008CEE95E0BBD421E0AA964FADAA97612F31
:100340008CEE95E08BD4E82EF12CE114F10449F108
:100350006EE071E086E495E023D300E010E08CEEDF
:1003600095E0DED3892B21F08CEE95E0E1D301C03E
:1003700080E040E1BE016F5F7F4F90E00E94550B2F
:10038000BE016F5F7F4F86E495E0BBDE6CEE73E0ED
:1003900086E495E0B6DE0F5F1F4F0E151F05FCF2D9
:1003A00005C067E171E086E495E0FAD286E495E065
:1003B000FFD286E495E044D15FC06801CE18DF0823
:1003C000A7961FAE1EAEA79740E050E0BE016B5946
:1003D0007F4FA9968EAD9FADA99712D7F801619373
:1003E0008F01A7964EAD5FADA797A9962EAD3FADF5
:1003F000A9974217530729F0A9965FAF4EAFA99767
:10040000DCCF9601A7016A2D8B2DFCDE182F86E428
:1004100095E016D1111103C068E271E02AC01F9265
:100420001F938BE291E011C08091060191E0892732
:1004300080930601882319F087E091E002C08AE0EA
:1004400091E09F938F938DE391E09F938F9386E448
:1004500095E09F938F936BDE0F900F900F900F900E
:100460000F900F9009C08AE491E0B4DE05C06EEEF3
:1004700073E086E495E0AED2C759DF4F0FB6F8942B
:10048000DEBF0FBECDBFDF91CF911F910F91FF90C7
:10049000EF90DF90CF90BF90AF9008958CEE95E0F5
:1004A000D4D326E040E052EC61E070E086E495E0D1
:1004B0004CD186E495E069D0892B21F086E495E063
:1004C0007DD0F7CF6FEF73E086E495E083D286E4CA
:1004D00095E0B6D044E650E060E070E086E495E058
:1004E00089C2CF9386E495E050D0181619060CF017
:1004F0004AC086E495E062D0C82F80910601882327
:1005000039F06C2F772767FD709586E495E05BDE08
:100510002091440430914504C83051F4121613065A
:1005200094F52150310930934504209344042BC0A5
:10053000F901EA5BFB4FC0832F5F3F4F30934504C7
:1005400020934404CD3071F486E495E031D280915B
:1005500044049091450402970CF07ADE1092450411
:10056000109244048091440490914504813091405C
:1005700054F0109245041092440466E174E086E45D
:1005800095E0CF9127C2CF910895FC01818D228DF6
:1005900090E0805C9F4F821B91098F73992708958B
:1005A000FC01918D828D981731F0828DE80FF11D3D
:1005B000858D90E008958FEF9FEF0895FC01918D58
:1005C000828D981761F0828DDF01A80FB11D5D96B5
:1005D0008C91928D9F5F9F73928F90E008958FEF23
:1005E0009FEF08958CE594E0892B41F080E090E046
:1005F000892B21F061D181110C9400000895FC0138
:10060000848DDF01A80FB11DA35ABF4F2C91848D9B
:1006100090E001968F739927848FA689B7892C93D0
:10062000A089B1898C9180648C93938D848D98136B
:1006300006C00288F389E02D80818F7D8083089534
:10064000CF93DF93EC01888D8823C1F0EA89FB8981
:10065000808185FD05C0A889B9898C9186FD0EC071
:100660000FB607FCF5CF808185FFF2CFA889B98945
:100670008C9185FFEDCFCE01C2DFE8CFDF91CF9126
:100680000895CF92DF92FF920F931F93CF93DF9342
:100690001F92CDB7DEB76C01DC015B969C915B9736
:1006A0005C968C915C97981307C05096ED91FC91E5
:1006B0005197808185FD31C0F601038D10E00F5FF9
:1006C0001F4F0F731127F02EF601848DF81210C002
:1006D0000FB607FCF9CFD6015096ED91FC915197DA
:1006E000808185FFF1CFC601698389DF6981ECCF05
:1006F000838DE80FF11DE35AFF4F6083D6015B96AF
:100700000C935B975296ED91FC9153978081806298
:10071000808381E058968C930DC0D6015696ED915A
:10072000FC91579760835096ED91FC915197808191
:100730008064808381E090E00F90DF91CF911F91E2
:100740000F91FF90DF90CF900895BF92CF92DF92EC
:10075000EF92FF92CF93DF93EC016A017B01B22EFF
:10076000E889F98982E08083411581EE58076105A7
:10077000710599F060E079E08DE390E0A7019601C2
:10078000FED42150310941095109569547953795B5
:100790002795211580E1380790F0E889F9891082C2
:1007A00060E874E88EE190E0A7019601E8D421505A
:1007B0003109410951095695479537952795EC859B
:1007C000FD853083EE85FF852083188EEC89FD89B9
:1007D000B082EA89FB89808180618083EA89FB8914
:1007E000808188608083EA89FB898081806880833A
:1007F000EA89FB8980818F7D8083DF91CF91FF9093
:10080000EF90DF90CF90BF9008951F920F920FB698
:100810000F9211242F938F939F93EF93FF93E09167
:100820005605F09157058081E0915C05F0915D05DA
:1008300082FD12C0908180915F058F5F8F73209140
:100840006005821751F0E0915F05F0E0EA5BFA4F36
:10085000958F80935F0501C08081FF91EF919F91FB
:100860008F912F910F900FBE0F901F9018951F9290
:100870000F920FB60F9211242F933F934F935F93D4
:100880006F937F938F939F93AF93BF93EF93FF9358
:1008900086E495E0B4DEFF91EF91BF91AF919F9117
:1008A0008F917F916F915F914F913F912F910F9019
:1008B0000FBE0F901F90189586E495E066DE21E04C
:1008C000892B09F420E0822F089510924905109297
:1008D000480588EE93E0A0E0B0E080934A0590934D
:1008E0004B05A0934C05B0934D0588E294E090939E
:1008F00047058093460585EC90E0909353058093DF
:10090000520584EC90E0909355058093540580EC5B
:1009100090E0909357058093560581EC90E090937A
:1009200059058093580582EC90E090935B05809385
:100930005A0586EC90E090935D0580935C051092DB
:100940005F0510926005109261051092620508958E
:10095000CF92DF92EF92FF920F931F93CF93DF938B
:100960006C017A01EB01E60EF71E00E010E0CE15F7
:10097000DF0561F06991D601ED91FC910190F08164
:10098000E02DC6010995080F191FF1CFC801DF91AD
:10099000CF911F910F91FF90EF90DF90CF9008952E
:1009A000B0CBDC01ED91FC910190F081E02D099438
:1009B0000F931F93CF93DF93EC016DE0F2DF8C0177
:1009C0006AE0CE01EEDF800F911FDF91CF911F9182
:1009D0000F9108950F931F93CF93DF93EC0191DB59
:1009E0008C01CE01E5DF800F911FDF91CF911F9128
:1009F0000F910895FC01448355836683778308959E
:100A0000089553D0FDDF4ADDC2EFD2E06ADD2097C2
:100A1000E9F3E8DDFBCF1F920F920FB60F9211247E
:100A20002F933F938F939F93AF93BF938091E40550
:100A30009091E505A091E605B091E7053091E305B9
:100A400023E0230F2D3720F40196A11DB11D05C011
:100A500026E8230F0296A11DB11D2093E305809384
:100A6000E4059093E505A093E605B093E705809132
:100A7000E8059091E905A091EA05B091EB05019692
:100A8000A11DB11D8093E8059093E905A093EA05A7
:100A9000B093EB05BF91AF919F918F913F912F91B3
:100AA0000F900FBE0F901F901895789484B58260B8
:100AB00084BD84B5816084BD85B5826085BD85B502
:100AC000816085BDEEE6F0E0808181608083E1E8B1
:100AD000F0E01082808182608083808181608083E9
:100AE000E0E8F0E0808181608083E1EBF0E08081EC
:100AF00084608083E0EBF0E0808181608083EAE7BE
:100B0000F0E0808184608083808182608083808146
:100B1000816080838081806880831092C100089505
:100B200080911C0690E020911D06821B910908957A
:100B300020911D0680911C06281750F4E22FF0E04A
:100B4000E25EF94F808190E02F5F20931D060895AB
:100B50008FEF9FEF0895E0911D0680911C06E81726
:100B600030F4F0E0E25EF94F808190E008958FEF7D
:100B70009FEF08950895CF92DF92EF92FF920F9327
:100B80001F93CF93DF937C01CB018A012091F8055D
:100B9000222389F0EB016B01C40ED51ECC15DD05B7
:100BA00061F06991D701ED91FC910190F081E02D08
:100BB000C7010995F3CF642F31D1C801DF91CF91DF
:100BC0001F910F91FF90EF90DF90CF900895CF93FA
:100BD000DF931F92CDB7DEB769832091F8052223FA
:100BE000D1F02091F905203240F021E030E0FC0105
:100BF0003383228380E090E014C08091FA05E82FCF
:100C0000F0E0E550FA4F998190838F5F8093FA0569
:100C10008093F90504C061E0CE010196FFD081E028
:100C200090E00F90DF91CF910895FC011382128222
:100C300048EE53E060E070E0448355836683778339
:100C400088E394E091838083089510921D061092AA
:100C50001C061092FA051092F9052DC0862F41321C
:100C600008F040E26EE176E042D010921D068093DB
:100C70001C06089581E08093F80560931B0610928E
:100C8000FA051092F90508950F93062F21E040917F
:100C9000F9056BEF75E080911B066DD01092FA0597
:100CA0001092F9051092F8050F91089561E0ECCFCC
:100CB0008CEE95E0BACF1092AB0681E08093A90646
:100CC0001092A80661E082E125D261E083E122D2A0
:100CD000E9EBF0E080818E7F808380818D7F80834F
:100CE00088E48093B80085E48093BC000895413285
:100CF00008F03FC09091AB069111FCCF91E090932A
:100D0000AB062093A9062FEF20933E061092830690
:100D1000240F209382069093AA069091AA06880F2A
:100D2000892B8093AA068091A806813041F4109205
:100D3000A8068091AA068093BB0085EC01C085EED1
:100D40008093BC008091AB068130E1F380918306F3
:100D5000841710F44091830624E836E0FB01D901A2
:100D60008A2F821B841718F48D918193F9CF842FD9
:100D7000089580E008950F93413208F046C09091A5
:100D8000AB069111FCCF92E09093AB060093A906BD
:100D90009FEF90933E061092830640938206FB01DC
:100DA00064E876E0DB019A2F961B941718F4919172
:100DB0009D93F9CF1092AA069091AA06880F892BCD
:100DC0008093AA068091A806813041F41092A8066B
:100DD0008091AA068093BB0085EC01C085EE8093CC
:100DE000BC00222321F08091AB068230E1F3809198
:100DF0003E068F3F61F080913E06803251F0809137
:100E00003E06803341F483E007C081E005C080E006
:100E100003C082E001C084E00F910895613298F42C
:100E20002091AB06243089F460936006FC0182E6D1
:100E300096E0DC012A2F281B261718F421912D9308
:100E4000F9CF80E0089581E0089582E0089585ED6E
:100E50008093BC008091BC0084FDFCCF1092AB0657
:100E6000089585EC8093BC001092AB0608951F9204
:100E70000F920FB60F9211242F933F934F935F93CE
:100E80006F937F938F939F93AF93BF93EF93FF9352
:100E90008091B900887F803609F49CC068F588325B
:100EA00009F45BC090F4803109F454C038F488230D
:100EB00009F4F3C0883009F44DC0F2C0883109F458
:100EC0004CC0803209F45DC0EBC0803409F468C0C6
:100ED00048F4803309F455C0883309F0E1C08093A9
:100EE0003E06A7C0803509F44FC0883509F45DC0BF
:100EF000883409F0D5C0D3C0883909F4C4C0A8F437
:100F0000883709F467C038F4883609F463C080373D
:100F100009F460C0C5C0883809F4B5C0803909F447
:100F20005FC0803809F0BCC05BC0803B09F483C05F
:100F300038F4803A09F466C0883A09F47CC0B0C03D
:100F4000803C09F4A4C0883C09F4A1C0883B09F4A2
:100F500087C0A6C08091AA0610C090918306809198
:100F60008206981770F5E091830681E08E0F8093DA
:100F70008306F0E0EC57F94F80818093BB0085EC4D
:100F800083C080933E068BC0E091830681E08E0F84
:100F9000809383068091BB00F0E0EC57F94F80838B
:100FA00090918306809182066BC0E091830681E078
:100FB0008E0F809383068091BB00F0E0EC57F94FD1
:100FC00080838091A90681116AC081E08093A80680
:100FD00084EA5EC083E08093AB0610923F06CFCFD9
:100FE00080913F06803208F04EC0E0913F0681E0DC
:100FF0008E0F80933F068091BB00F0E0E05CF94FDC
:101000008083BDCF80913F06803230F4E0913F066F
:10101000F0E0E05CF94F10821ADF60913F0670E06B
:10102000E091A406F091A50680E496E0099510925F
:101030003F0617DF35C084E08093AB06109261064F
:1010400010926006E091A606F091A706099580919E
:101050006006811105C081E08093600610926206EF
:10106000E091610681E08E0F80936106F0E0EE5919
:10107000F94F80818093BB0090916106809160065A
:10108000981708F47CCF85E88093BC0009C085ECF4
:101090008093BC001092AB0603C010923E06D7DED0
:1010A000FF91EF91BF91AF919F918F917F916F9140
:1010B0005F914F913F912F910F900FBE0F901F9016
:1010C0001895833081F028F4813099F08230A1F0B6
:1010D00008958730A9F08830B9F08430D1F4809138
:1010E00080008F7D03C0809180008F778093800087
:1010F000089584B58F7702C084B58F7D84BD08952F
:101100008091B0008F7703C08091B0008F7D809375
:10111000B00008950F931F93CF93DF931F92CDB725
:10112000DEB7282F30E0F901E859FF4F8491F9012B
:10113000E458FF4F1491F901E057FF4F0491002349
:10114000C1F0882319F06983BCDF6981E02FF0E0EA
:10115000EE0FFF1FEC55FF4FA591B4919FB7F89488
:101160008C91611103C01095812301C0812B8C9358
:101170009FBF0F90DF91CF911F910F910895A1E232
:101180001A2EAA1BBB1BFD010DC0AA1FBB1FEE1F01
:10119000FF1FA217B307E407F50720F0A21BB30B4C
:1011A000E40BF50B661F771F881F991F1A9469F7C8
:1011B00060957095809590959B01AC01BD01CF0124
:1011C00008950FD0A59F900DB49F900DA49F800D02
:1011D000911D11240895EE0FFF1F0590F491E02D4D
:1011E0000994A29FB001B39FC001A39F700D811D00
:1011F0001124911DB29F700D811D1124911D089520
:101200002F923F925F926F927F928F929F92AF92B6
:10121000BF92CF92DF92EF92FF920F931F93CF93E3
:10122000DF938B01EA016115710521F0DB018C93DD
:1012300011969C93209739F09E0122503109233258
:10124000310508F0F8C07C016701BFEFCB1ADB0A5B
:101250005601F7016080862D90E014D2892B11F0A1
:101260007601F2CFFDE26F120AC0570182E0A80EAC
:10127000B11CD70111966C90772473940BC0BBE21C
:101280006B1207C05701E2E0AE0EB11CD7011196F8
:101290006C90712CCE018F7E892B89F4B0E36B1298
:1012A00022C0F50180818F7D883541F56180F2E0B3
:1012B000AF0EB11C872D8260782EC0E1D0E0C8301F
:1012C000D105F1F04CF4C230D10511F5C12CD12C6F
:1012D000E12CB0E4FB2E2EC0CA30D10531F0C03174
:1012E000D10519F115C0209751F7CAE0D0E0ACEC58
:1012F000CA2EDC2CEC2CACE0FA2E1CC02097F9F6A0
:10130000C8E0D0E0C12CD12CE12CF0E1FF2E12C0BE
:1013100060E070E080E090E89E01442737FD409552
:10132000542F2DDF69017A0105C0C12CD12CE12C8D
:10133000E8E0FE2EF50160E020E030E0A9014E017A
:10134000AA2497FCA094BA2C1F0170ED572E560CBE
:10135000A9E0A51570F48FEB860D8A3118F499EC8D
:10136000592E06C08FE9860D8A3128F589EA582E54
:10137000560C852D90E08C179D07ECF467FD17C087
:10138000C216D306E406F50678F0C501B40155D4BB
:101390009B01AC01250D311D411D511D2130310531
:1013A0004105B0E85B0710F06FEF01C061E03196D6
:1013B000D1016C90C9CF872D81700115110571F095
:1013C000662329F03197D801ED93FC9307C071FE95
:1013D00019C03297D801ED93FC9314C067FF12C077
:1013E000882329F020E030E040E050E804C02FEFEF
:1013F0003FEF4FEF5FE782E290E09093AD0680937E
:10140000AC0616C0882341F0509540953095219543
:101410003F4F4F4F5F4F0CC057FF0AC082E290E032
:101420009093AD068093AC062FEF3FEF4FEF5FE751
:10143000B901CA0104C060E070E080E090E0DF9193
:10144000CF911F910F91FF90EF90DF90CF90BF90C1
:10145000AF909F908F907F906F905F903F902F9074
:1014600008952F923F925F926F927F928F929F92F8
:10147000AF92BF92CF92DF92EF92FF920F931F93A2
:10148000CF93DF938B01EA016115710521F0DB0138
:101490008C9311969C93209739F09E01225031092C
:1014A0002332310508F0D5C07C016701BFEFCB1AAC
:1014B000DB0A5601F7016080862D90E0E3D0892B8E
:1014C00011F07601F2CFFDE26F120AC0570182E0FF
:1014D000A80EB11CD70111966C90772473940BC0A1
:1014E000BBE26B1207C05701E2E0AE0EB11CD701A0
:1014F00011966C90712CCE018F7E892B89F4B0E30C
:101500006B1236C0F50180818F7D8835D1F4618002
:10151000F2E0AF0EB11C872D8260782EC0E1D0E0E2
:10152000CA30D10549F1C031D10521F0C830D1050B
:1015300099F409C0CC24CA94DC2CEC2CAFE0FA2E30
:1015400021C0209769F7C8E0D0E0CC24CA94DC2CF5
:10155000EC2CFFE1FF2E16C06FEF7FEFCB019E0159
:10156000442737FD4095542F0ADE69017A010AC0ED
:101570002097B1F6CAE0D0E0E9E9CE2EDC2CEC2CC5
:10158000E9E1FE2EF50160E020E030E0A9014E0126
:10159000AA2497FCA094BA2C1F0170ED572E560C6C
:1015A000A9E0A51570F48FEB860D8A3118F499EC3B
:1015B000592E06C08FE9860D8A3140F589EA582EEA
:1015C000560C852D90E08C179D0704F56F3FD1F0E8
:1015D000C216D306E406F50690F0C501B4012DD37A
:1015E0009B01AC01852D90E0A0E0B0E0280F391FF1
:1015F0004A1F5B1F281739074A075B0710F46FEF74
:1016000001C061E03196D1016C90C6CF0115110582
:1016100051F0662311F0319703C071FE04C0329778
:10162000D801ED93FC9370FE07C05095409530951E
:1016300021953F4F4F4F5F4F67FF10C082E290E010
:101640009093AD068093AC066FEF7FEF8FEF9FEF27
:1016500007C060E070E080E090E002C0B901CA011C
:10166000DF91CF911F910F91FF90EF90DF90CF907E
:10167000BF90AF909F908F907F906F905F903F90C2
:101680002F900895911120C2803219F08950855011
:10169000D0F70895FC018191861721F08823D9F7AE
:1016A000992708953197CF010895BB274A3031F427
:1016B000992322F4BDE2909581959F4F01C0BB27ED
:1016C000FB015527AA27880F991FAA1FA41710F0FE
:1016D000A41B83955051B9F7A05DAA3308F0A95D0A
:1016E000A193009779F7B111B1931192CB0105C283
:1016F000AEE0B0E0EDE7FBE0BDC28C01CA0146E020
:101700004C831A83098377FF02C060E070E8615060
:1017100071097E836D83A901BC01CE01019611D0B0
:101720004D815E8157FD0AC02F81388542175307CE
:101730000CF49A01F801E20FF31F10822E96E4E0F8
:10174000B5C2ACE0B0E0E6EAFBE086C27C016B012A
:101750008A01FC0117821682838181FFB0C1CE010C
:1017600001964C01F7019381F60193FD859193FF5A
:1017700081916F01882309F49EC1853239F493FD6C
:10178000859193FF81916F01853221F4B70190E03B
:10179000C4D1E8CF512C312C20E02032A0F48B3280
:1017A00069F030F4803259F0833269F420612CC042
:1017B0008D3239F0803339F4216026C022602460F4
:1017C00023C0286021C027FD27C030ED380F3A30F4
:1017D00078F426FF06C0FAE05F9E300D1124532EE8
:1017E00013C08AE0389E300D1124332E20620CC0C5
:1017F0008E3221F426FD5FC1206406C08C3611F4C0
:10180000206802C0883641F4F60193FD859193FF6C
:1018100081916F018111C1CF982F9F7D9554933095
:1018200028F40C5F1F4FFFE3F9830DC0833631F0BE
:10183000833771F0833509F057C021C0F8018081EA
:1018400089830E5F1F4F44244394512C540114C0CC
:101850003801F2E06F0E711CF801A080B18026FF04
:1018600003C0652D70E002C06FEF7FEFC5012C87CC
:1018700039D12C0183012C852F77222E16C03801F7
:10188000F2E06F0E711CF801A080B18026FF03C04A
:10189000652D70E002C06FEF7FEFC5012C8717D177
:1018A0002C012C852068222E830123FC19C0832D56
:1018B00090E048165906A0F4B70180E290E02DD1DF
:1018C0003A94F5CFF50127FC859127FE81915F01C0
:1018D000B70190E022D131103A94F1E04F1A51084B
:1018E0004114510479F7DEC0843611F0893631F5A0
:1018F000F80127FF07C060817181828193810C5FAD
:101900001F4F08C060817181882777FD8095982FCF
:101910000E5F1F4F2F76B22E97FF09C090958095CE
:10192000709561957F4F8F4F9F4F2068B22E2AE0B0
:1019300030E0A40124D1A82EA81843C0853729F48B
:101940002F7EB22E2AE030E025C0F22FF97FBF2E85
:101950008F36C1F018F4883579F0ADC0803719F0B2
:10196000883721F0A8C02F2F2061B22EB4FE0DC001
:101970008B2D8460B82E09C024FF0AC09F2F96606B
:10198000B92E06C028E030E005C020E130E002C0FA
:1019900020E132E0F801B7FE07C0608171818281E9
:1019A00093810C5F1F4F06C06081718180E090E0E1
:1019B0000E5F1F4FA401E3D0A82EA818FB2DFF77C0
:1019C000BF2EB6FE0BC02B2D2E7FA51450F4B4FEF7
:1019D0000AC0B2FC08C02B2D2E7E05C07A2C2B2D00
:1019E00003C07A2C01C0752C24FF0DC0FE01EA0D46
:1019F000F11D8081803311F4297E09C022FF06C0C9
:101A00007394739404C0822F867809F0739423FD35
:101A100012C020FF06C05A2C731418F4530C571828
:101A2000732C731460F4B70180E290E02C8775D0BA
:101A300073942C85F6CF731410F4371801C0312C31
:101A400024FF11C0B70180E390E02C8766D02C857D
:101A500022FF16C021FF03C088E590E002C088E79E
:101A600090E0B7010CC0822F867851F021FD02C0B2
:101A700080E201C08BE227FD8DE2B70190E04DD0FE
:101A8000A51430F4B70180E390E047D05A94F8CF22
:101A9000AA94F401EA0DF11D8081B70190E03DD0D8
:101AA000A110F6CF332009F45DCEB70180E290E0BB
:101AB00034D03A94F7CFF7018681978102C08FEF37
:101AC0009FEF2C96E2E1E4C0992788270895FC0156
:101AD0000590615070400110D8F7809590958E0F59
:101AE0009F1F0895FC016150704001900110D8F7CC
:101AF000809590958E0F9F1F0895DC01FC01672F44
:101B000071917723E1F7329704C07C916D937083D4
:101B10006291AE17BF07C8F308950F931F93CF9339
:101B2000DF93182F092FEB018B8181FD03C08FEF0D
:101B30009FEF20C082FF10C04E815F812C813D81CC
:101B4000421753077CF4E881F9819F012F5F3F4FD3
:101B500039832883108306C0E885F985812F09958C
:101B6000892B29F72E813F812F5F3F4F3F832E83A3
:101B7000812F902FDF91CF911F910F910895FA013E
:101B8000AA27283051F1203181F1E8946F936E7FBC
:101B90006E5F7F4F8F4F9F4FAF4FB1E03ED0B4E0AD
:101BA0003CD0670F781F891F9A1FA11D680F791FEE
:101BB0008A1F911DA11D6A0F711D811D911DA11DFF
:101BC00020D009F468943F912AE0269F112430190F
:101BD000305D3193DEF6CF010895462F4770405DAA
:101BE0004193B3E00FD0C9F7F6CF462F4F70405D59
:101BF0004A3318F0495D31FD4052419302D0A9F7B4
:101C0000EACFB4E0A6959795879577956795BA95AD
:101C1000C9F700976105710508959B01AC010A2E73
:101C200006945795479537952795BA95C9F7620F4A
:101C3000731F841F951FA01D0895DB018F939F9331
:101C4000C0DABF91AF91A29F800D911DA39F900D0F
:101C5000B29F900D112408952F923F924F925F9260
:101C60006F927F928F929F92AF92BF92CF92DF92AC
:101C7000EF92FF920F931F93CF93DF93CDB7DEB711
:101C8000CA1BDB0B0FB6F894DEBF0FBECDBF0994A5
:101C90002A88398848885F846E847D848C849B84FC
:101CA000AA84B984C884DF80EE80FD800C811B810A
:101CB000AA81B981CE0FD11D0FB6F894DEBF0FBE39
:0A1CC000CDBFED010895F894FFCFA9
:101CCA000000AE068000016F6E006F6666004F4B23
:101CDA0028686578292000455252206E6F20646179
:101CEA0074612072656164004F4B00455252286945
:101CFA00326320636F64653A2564290A004F4B28D2
:101D0A006563686F202573290A0055736167653A10
:101D1A00205C720A2052656164696E670A207265E6
:101D2A006164203C69326320646576696365206179
:101D3A006464726573733E203C7265676973746587
:101D4A007220616464726573733E203C6C656E67D1
:101D5A0074683E0A0A2057726974696E670A2077A6
:101D6A0072697465203C69326320646576696365CB
:101D7A0020616464726573733E203C72656769739F
:101D8A0074657220616464726573733E203C646199
:101D9A007461206279746520313E203C646174610B
:101DAA00206279746520323E202E2E2E0A0A205493
:101DBA006F67676C65206563686F20286465666174
:101DCA00756C7420697320226F6E22290A2065635C
:101DDA00686F2028746F67676C6573206563686F26
:101DEA00290A0A20446973706C61792074686973DE
:101DFA002068656C700A2068656C700A0A20416C5C
:101E0A006C206E756D626572732063616E20626507
:101E1A0020696E206465632C206F637420287072B9
:101E2A0065666978203029206F72206865782028D5
:101E3A007072656669782030782920666F726D61E4
:101E4A00742E0A0A20693263206465766963652004
:101E5A006164647265737320697320696E20372028
:101E6A0062697420666F726D61740A0A20436F6D2D
:101E7A006D616E64732063616E2062652073686FA2
:101E8A007274656420746F206A757374207468654F
:101E9A00206669727374206C65747465722E0A0AFE
:101EAA00204578616D706C652077726974696E6718
:101EBA003A0A3E20772030783530203020313020E1
:101ECA0031203220350A2057726974657320342014
:101EDA00627974657320746F2061646472657373C8
:101EEA002030206F6620616E20656570726F6D20EC
:101EFA006D656D6F727920283078353020697320CE
:101F0A007374616E64617264206164647265737370
:101F1A0020666F72203234637878206D656D6F7237
:101F2A00696573290A204F75747075743A0A094FE6
:101F3A004B0A0A4578616D706C6520726561646947
:101F4A006E673A0A3E2072203078353020302031D0
:101F5A00300A2052656164732031302062797465D9
:101F6A00732066726F6D20616464726573732030CA
:101F7A00206F6620746861742073616D65206565E1
:101F8A0070726F6D2E0A4F75747075743A0A20203C
:101F9A00204F4B286865782920612C312C322C354A
:101FAA002C312C302C302C322C302C302C00455239
:101FBA00522862616420636F6D6D616E64290069E5
:101FCA003263746F6F6C20666F7220417264756938
:101FDA006E6F20763100455252286F766572666CB4
:101FEA006F772900000000004103A804C502DE0241
:101FFA00D002200300000000E705BB059005980504
:04200A00AB05BA0563
:00000001FF
